:020000040800F2
:10000000B85A0024B10200086F8A0008257B000856
:100010002D8900087510000825A6000800000000C2
:10002000000000000000000000000000418F0008F8
:100030002515000800000000398B0008F58F000826
:10004000CF020008CF020008CF020008CF0200084C
:10005000CF020008CF020008CF020008CF0200083C
:10006000CF020008CF020008CF020008C11000082C
:10007000CF020008D5100008CF020008CF02000808
:10008000CF020008CF020008CF0200089516000832
:10009000CF020008A1160008CF020008CF02000816
:1000A000CF020008CF020008CF020008CF020008EC
:1000B000CF020008CF020008CF020008CF020008DC
:1000C000CF020008CF020008CF020008CF020008CC
:1000D000CF020008D5A40008CF020008CF02000814
:1000E000CF020008CF02000800000000CF02000885
:1000F000CF020008CF020008CF020008E11000087C
:10010000CF020008CF020008CF020008CF0200088B
:10011000CF020008CF020008A9910008B59100089D
:10012000CF020008CF020008CF020008CF0200086B
:10013000CF020008CF020008CF020008CF0200085B
:1001400000000000000000000000000000000000AF
:10015000CF020008CF020008CF020008CF0200083B
:10016000CF020008CF020008CF020008CF0200082B
:10017000CF020008CF020008CF020008CF0200081B
:10018000CF020008CF020008CF020008CF0200080B
:10019000CF020008CF020008CF020008CF020008FB
:1001A000CF020008CF020008CF020008CF020008EB
:1001B000CF020008CF020008CF020008CF020008DB
:1001C000CF020008CF020008CF020008CF020008CB
:1001D000CF020008CF020008CF020008CF020008BB
:1001E000CF020008CF020008CF020008CF020008AB
:1001F000CF020008CF020008CF020008CF0200089B
:10020000CF020008CF020008CF020008CF0200088A
:10021000CF020008CF020008CF020008CF0200087A
:10022000CF020008CF020008CF0200080000000043
:10023000CF020008CF02000800000000CF02000833
:10024000CF020008CF020008CF020008CF0200084A
:10025000CF020008CF020008CF020008CF0200083A
:10026000CF020008CF020008CF020008CF0200082A
:10027000CF020008CF020008CF02000800000000F3
:10028000CF020008CF020008CF02000800000000E3
:1002900000000000CF020008DFF810D000F0CAFA1A
:1002A0000048004749BC0008AFF30080B85A00245A
:1002B000074880470748804707480047FEE7FEE7B2
:1002C000FEE7FEE7FEE7FEE7FEE7FEE7FEE7FEE706
:1002D00079160008B1900008990200082DE9F05F36
:1002E0000546002092469B468846064681464024A5
:1002F0001BE0284641464746224600F0CCF85346CC
:100300005A46C01A914110D311461846224600F0B1
:10031000B3F82D1A67EB01084F4622460120002151
:1003200000F0AAF817EB00094E41201EA4F10104C9
:10033000DFDC484631462A464346BDE8F09F40EAA6
:1003400001039B0703D009E008C9121F08C0042A53
:10035000FAD203E011F8013B00F8013B521EF9D23A
:100360007047D2B201E000F8012B491EFBD2704762
:100370000022F6E710B513460A4604461946FFF771
:10038000F0FF204610BD10B5044604E00B7800F8DD
:10039000013B03B1491C521EF8D2204610BD421C3D
:1003A00010F8011B0029FBD1801A704710B50022FC
:1003B00000E0521C835C8C5CA34201D1002BF8D17D
:1003C000D8B2E1B2401A10BD70B50F4D00B928681F
:1003D000002412E00A4602E09E4203D0521C137829
:1003E000002BF9D1DAB2224305D02BB124B1002180
:1003F00000F8011B04E00446401C0678002EE9D1F9
:100400002860204670BD0000FC0000240022CBB212
:100410000178994200D10246401C0029F8D11046CB
:1004200070472DE9F0410E460546002400E0641CAB
:10043000285D00F040F80746305D00F03CF8381ABF
:1004400002D1295D0029F2D1BDE8F08130B50B461B
:10045000014600202022012409E021FA02F59D42F4
:1004600005D303FA02F5491B04FA02F52844151EC8
:10047000A2F10102F1DC30BD202A04DB203A00FAAF
:1004800002F1002070479140C2F1200320FA03F3EB
:10049000194390407047202A04DB203A21FA02F0E9
:1004A0000021704721FA02F3D040C2F120029140AE
:1004B000084319467047A0F14101192900D820309E
:1004C00070472DE9FE4F804681EA0300C00F0C46BD
:1004D000009021F0004123F00045B8EB0200A94153
:1004E00005D24046214690461C460B46024623F064
:1004F0000040104347D0270DC7F30A00C3F30A5149
:100500000290401A019040286BDAC3F3130040F4C4
:10051000801B0098924620B10023D2EB030A63EBC4
:100520000B0B01985946C0F140025046FFF7A4FF5B
:1005300006460D4650465946019A00F08DF910EBDB
:1005400008006141002487EA115284EAE7731A43E4
:1005500040D0009A62B3019A012A4FEA075215DC93
:10056000001B61EB02014FF0004202EA0752CDE9A5
:100570000042001C41F5801132462B4600F08DF9F7
:1005800003B0BDE8F08F40462146F9E7001B61EB60
:100590000201001C41F5801300185B412018A2F5F0
:1005A000001747EB030140EAD570B6196D4111E021
:1005B0006D084FEA360645EAC0754FEA0752001B40
:1005C00061EB0201001C41F5801149084FEA30003F
:1005D0000019514132462B4603B0BDE8F04F00F000
:1005E0004DB90098012240000023D0EB020263EBDA
:1005F000E073009821464FEAE074B8EB000061EB2D
:100600000401E9E783F000435BE781F0004158E72C
:100610002DE9FE4F81EA030404F0004421F000417B
:1006200000944FF0000B23F0004350EA01045ED029
:1006300052EA03045BD0C3F30A54C1F30A552C44B5
:10064000A4F2F3340194A0FB0254C1F3130141F46A
:100650008011C3F3130343F4801301FB024400FB36
:10066000034E840A970A44EA815447EA8357A4FB5D
:10067000076802958D0A05FB07854FEA932C04FB5A
:100680000C542705029D4FEA065847EA1637B5EB8A
:1006900008056EEB070C870E920E47EA811742EAB7
:1006A0008312A7FB0201B6EB0B0164EB00042B0DD8
:1006B00043EA0C335E1844EB1C50DA465146E7FB24
:1006C0000201C5F313044FEA0B3343EA14534FEA14
:1006D0000432019C43EA0603A4F10C040294009C3A
:1006E000CDE900B400F0D9F803B0BDE8F08F0020E8
:1006F0000146F9E72DE9F04D81EA030404F0004BCF
:1007000021F0004514464FF0000A23F0004150EA62
:10071000050220D054EA01021DD0C5F30A57024653
:10072000C5F31303C1F31300C1F30A5640F4801557
:1007300043F48013A7EB0608101BD64608F2FD38D9
:1007400073EB050002D308F1010801E092185B4148
:10075000B8F1000F03DA00200146BDE8F08D00205B
:100760004FF48011064684460EE0171B73EB050715
:1007700005D3121B63EB050306434CEA010C490841
:100780004FEA300092185B4150EA0107EDD152EA7E
:10079000030012D082EA040083EA0501084305D071
:1007A000101BAB4106D20122002306E000224FF0CD
:1007B000004302E06FF0010253101AEB06004CEB0D
:1007C000085110EB0A0041EB0B01BDE8F04D00F0C1
:1007D00055B8C1F30A52C1F3130140F2FF3341F49B
:1007E00080119A4202DA00200146704740F23343FA
:1007F0009A42A2F2334202DC5242FFF74CBEFFF7AC
:100800003BBE000030B5041E71F1000404DB4FF064
:100810000044404264EB0101141E73F1000405DB47
:100820001C464FF00043524263EB0403994208BF59
:10083000904230BD064C074D06E0E06840F00103F1
:1008400094E8070098471034AC42F6D3FFF728FD30
:100850000CC500082CC50008202A06DBCB17203A5F
:1008600041FA02F043EAE07306E041FA02F3D040B5
:10087000C2F12002914008431946704710B5141E7A
:1008800073F1000408DA401C41F1000192185B4149
:100890001A4301D120F0010010BD2DE9F04D924620
:1008A0009B4611B1B1FA81F202E0B0FA80F2203237
:1008B0009046FFF7E1FD04460F4640EA0A0041EA90
:1008C0000B0153465A46084313D0114653EA010020
:1008D00019D0C8F140025046FFF7DDFD05460E462F
:1008E000504659464246FFF7C7FD084305D0012050
:1008F00004E020463946BDE8F08D0020054346EA75
:10090000E0762C4337430A986305E40AA0EB08001D
:100910000022FD0A44EA47540A3002D5002001466D
:10092000E9E7010510196941DDE908450019694148
:10093000BDE8F04DA2E7000070B53A4905460068F1
:10094000884202D0384A904202D1D1F8080302E02E
:100950003648D0F8080310F4403F11D005F0FCFAF7
:1009600004466868B0F5803F06D0B0F5003F03D07C
:10097000B0F5403F27D101E0000C18E0A40822E0C8
:1009800000214FF4002004F07FFB044668688103D7
:10099000890B18D181140C2915D2DFE801F0140657
:1009A00006060606060B0D0F1113800C4000B4FB63
:1009B000F0F408E0240906E0640904E0A40902E078
:1009C000E40900E0240A03F067FE41F203018842D3
:1009D00008D8174884422868816813D821F48071A8
:1009E000816070BD13496008884204D82868816816
:1009F00021F44071F4E71049884206D828688168DC
:100A000021F4407141F48071EAE70C49884228687A
:100A1000816804D821F4407141F40071E0E741F4A9
:100A20004071DDE7002002400021024000600258D2
:100A3000002D3101105E5F0020BCBE0040787D01BA
:100A400010B5846B616D11F0500F06D0616DC90651
:100A500025D5204601F08EFA10BD606D40F400707F
:100A6000606520680168090707D507F0A5F890B10F
:100A70002068C068800403D50DE0C06880070AD1F3
:100A8000606D20F480706065606DC00403D4606D9B
:100A900040F001006065204601F06AFA10BDE16C8B
:100AA000C96CBDE81040084710B5806B416D41F03E
:100AB00040014165816D41F00401816501F05AFA00
:100AC00010BD10B5806B01F054FA10BD70B504462E
:100AD000006881688268C1F3400112F0010F28D0DC
:100AE00039BB816801F00D01012914D18168124AD6
:100AF0001140891C816021680320086003F0D2FD49
:100B0000054612E003F0CEFD401B02280DD92068F7
:100B10008068C00709D0606D40F010006065A06D6E
:100B200040F00100A065012070BD20688068C0070A
:100B3000E8D1002070BD0000C0FFFF7F70B5044603
:100B40000068816811F0010F40D18168204A11428C
:100B50002DD18168D5432940491C816003F0A2FD55
:100B60001C49064620681C4B884201D0984201D19E
:100B70001A4A00E01A4A9268984202F01F0200D016
:100B8000014681421DD0E2B120E0816811F0010FE1
:100B900003D181682940491C816003F083FD801BDB
:100BA00002280ED920680068C043C00709D0606DD4
:100BB00040F010006065A06D40F00100A0650120CC
:100BC00070BD20680168C943C907DED1002070BD2F
:100BD0003F0000800020024000210240002302402C
:100BE0000063025802490E2201F11C0001F09ABB79
:100BF0000C01002410B50E4C208A002816D00D4898
:100C000041684A1C42600CA009F0BEFE012203218B
:100C100000200AF06DFE0122032102200AF068FE86
:100C200000F0D4F800F028FA0020208210BD000067
:100C300038090024340000240D0A446562756720D9
:100C400052756E3D25640D0A00000000008840BA10
:100C5000704700002DE9F0412DED028B00F070F996
:100C60000AF0DAFD0024114EDFF844800127B1EECE
:100C7000048A254604EB840004EB440206EB0010D2
:100C800008EBC20147630D75858580ED118A20460A
:100C900002F062FD204607F0EFFE641CA4B2102CA7
:100CA000E8D3BDEC028BBDE8F0810000F80E002413
:100CB000F81300240EB500218DF808108DF80010EF
:100CC0004278052A2FD008DC012A2CD0022A09D02C
:100CD000032A28D0042A26D120E0062A23D0102A6D
:100CE00021D11EE0437A03228DF80030C2809DF8A6
:100CF00000009DF80000202815D28DF8041008E0AF
:100D00009DF800009DF804009DF80400401C8DF83B
:100D100004009DF804002028F2D304E007F008FE48
:100D200001E007F089FE9DF80800FE2801D00120AF
:100D30000EBDBFF34F8F0548054A016801F4E0611D
:100D400011430160BFF34F8F00BFFDE70CED00E0E2
:100D50000400FA05F8B5154ED6F8B401002810D0F5
:100D6000134C1449A16006F0EBFE4FF0000548B1AA
:100D70006088401C80B26080B0F57A7F01D96580C0
:100D80003570F8BD8DF8005009E065806946D6F8E9
:100D9000B40107F046FFA1689DF800008847D6F827
:100DA000B40106F0CDFE0028EFD0F8BD100B0024F2
:100DB0003C00002435A7000802490870024807F0EB
:100DC0004CBF00003C0000244C09002410B51D4C11
:100DD00021881DA009F0D8FD61881FA009F0D4FD6D
:100DE000A18821A009F0D0FDE18823A009F0CCFD65
:100DF000218925A009F0C8FD618927A009F0C4FD5B
:100E0000A18929A009F0C0FDE1892BA009F0BCFD52
:100E1000218A2DA009F0B8FD618A2EA009F0B4FD49
:100E2000A18A2FA009F0B0FDE18A30A009F0ACFD45
:100E3000218B31A009F0A8FD618B32A0BDE81040E4
:100E400009F0A2BD0C010024414443315F41303D13
:100E500025640D0A00000000414443315F41313DEB
:100E600025640D0A00000000414443315F41323DDA
:100E700025640D0A00000000414443315F41333DC9
:100E800025640D0A00000000414443315F41343DB8
:100E900025640D0A00000000414443315F41353DA7
:100EA00025640D0A00000000414443315F41363D96
:100EB00025640D0A00000000414443315F41373D85
:100EC00025640D0A00000000504334203D25640DC8
:100ED0000A000000504335203D25640D0A00000043
:100EE0005042302025640D0A000000005042313D80
:100EF00025640D0A000000005043302025640D0ACF
:100F0000000000005043313D25640D0A0000000040
:100F100010B500F087F800F087F800F08BFB0AF0BE
:100F2000ADFCBDE8104000F027B8020A487002206E
:100F30000A707047020A487002200A707047000069
:100F400004480121044A026002F596724260018160
:100F500070470000D815002474C00008044810B57C
:100F600005F01AFDBDE81040024805F015BD00006F
:100F7000BC0500247005002410B51B4901221B4844
:100F800088B006F0F9FB184901221948891C06F0BF
:100F9000F3FB18A30FCB8DE80F006846FFF7FFF9AE
:100FA0004FF0FF34694682B21048234606F045FCF4
:100FB00014A30DF1100C0FCB8CE80F0004A8FFF761
:100FC000EEF982B20A4804A9234606F036FC064828
:100FD00090ED010A0FA0B7EEC00A53EC102B09F0F8
:100FE000D3FC08B010BD0000280000243407002402
:100FF000A006002448656C6C6F2055415254312185
:101000000D0A000048656C6C6F206875617274375A
:101010000D0A00000D0A2053544D33324637353047
:101020003D25660070470000114808B5016841F091
:101030000101016000680122114600F001000090EA
:101040000B2003F0FFFC0B2003F0EFFC0022032138
:101050000D2003F0F7FC0D2003F0E7FC0022052132
:101060002F2003F0EFFCBDE808402F2003F0DDBC8B
:10107000D8440258FEE70000014808210AF05ABC93
:1010800000000024F0B506464FF6FF70002204462B
:1010900041F2210510E0B35C80EA0320002307043D
:1010A00003D585EA400080B201E004EA40005B1C01
:1010B000DBB2082BF3D3521C8A42ECD3F0BD000004
:1010C000034810B501F0A4FCBDE8104000F054BC8A
:1010D0008C010024014801F09BBC0000C8070024DB
:1010E000014801F095BC000040080024294A01682D
:1010F00091423AD0274A1832914236D0254A3032AE
:10110000914232D0234A483291422ED0214A603255
:1011100091422AD01F4A7832914226D01D4A9032FD
:10112000914222D01B4AA83291421ED01A4A9142C3
:101130001BD0194A1832914217D0174A30329142C7
:1011400013D0154A483291420FD0134A603291426F
:101150000BD0114A7832914207D00F4A9032914217
:1011600003D00D4AA832914211D1CAB21823103AC5
:10117000B2FBF3F26FF30901032A02F00703074AF7
:10118000D25CC26500D9091D81650846704721F00F
:10119000FF01F9E71000024010040240D6BE00082B
:1011A00030B5224A012301689142CAB21BD01F4CBC
:1011B0001434A14217D01D4C2834A14213D01B4C2B
:1011C0003C34A1420FD0194C5034A1420BD0174CE3
:1011D0006434A14207D0154C7834A14203D0134C9B
:1011E0008C34A1420CD11421114C083AB2FBF1F11C
:1011F0000F4A803201F01F0504EB8101AB4010E083
:101200000C4D1824103A0D44B2FBF4F1A82D00D86F
:101210000831094A01F01F0402EB8101064AA3408C
:101220008032603080E80E0030BD00000854025863
:1012300000580258F0FBFDBF0008024010B50279CB
:10124000531E072B2DD8174C0168A1421BD0154CFB
:101250001434A14217D0134C2834A14213D0114C9E
:101260003C34A1420FD00F4C5034A1420BD00D4C56
:101270006434A14207D00B4C7834A14203D0094C0E
:101280008C34A14203D10849074C443102E007499C
:10129000064C443104EB8202C0E91B210121994034
:1012A000416710BD08540258FC580258FC0802401F
:1012B00010B583694FF0C074826A0146002053B1B3
:1012C000B3F5005F15D072B1012A0CD0022A0AD002
:1012D000032A09D104E01AB1012A06D0022A03D157
:1012E000C96AC90100D5012010BDC96AA142FAD05E
:1012F00010BD002AF7D0012AF2D0022AF3D0032A27
:10130000F3D010BD2DE9F04F804E804FDFF8FC91F7
:101310001836DFF8F8A148370468856D0AF1300AFD
:10132000DFF8ECB14C45DFF8ECC1DFF8ECE16DD053
:10133000B4426BD0544569D0BC4267D0DFF8D0814D
:10134000A8F11808444561D05C455FD064455DD084
:1013500074455BD0DFF8C481444557D0DFF8BC81C9
:1013600008F11808444551D0DFF8B08108F1300881
:1013700044454BD0DFF8A48108F14808444545D0E6
:10138000DFF8988108F1600844453FD0DFF88C8190
:1013900008F17808444539D0DFF8808108F19008D9
:1013A000444533D0DFF8748108F1A80844452DD0B6
:1013B000DFF86C81444529D0DFF8648108F1140816
:1013C000444523D0DFF8588108F1280844451DD052
:1013D000DFF84C8108F13C08444517D0DFF8408124
:1013E00008F15008444511D0DFF8348108F1640851
:1013F00044450BD0DFF8288108F17808444505D032
:10140000DFF81C8108F18C08444509D1D0E919485E
:10141000C4F80480C46E1CB1D0E91C48C4F8048030
:1014200004684C452ED0B4422CD054452AD0BC423E
:1014300028D0374E183EB44224D05C4522D06445B3
:1014400020D074451ED0354EB4421BD0334E1836D2
:10145000B44217D0314E3036B44213D02F4E4836F6
:10146000B4420FD02D4E6036B4420BD02B4E78369E
:10147000B44207D0294E9036B44203D0274EA83646
:10148000B44215D190F85C603F2406F01F06B440CA
:10149000AC600468256825F4802525602EE09A60FC
:1014A0000068C160BDE8F08F99600068C260F9E72C
:1014B0001B4EB4421BD01A4E1436B44217D0184EED
:1014C0002836B44213D0164E3C36B4420FD0144ED8
:1014D0005036B4420BD0124E6436B44207D0104E90
:1014E0007836B44203D00E4E8C36B442DAD190F83E
:1014F0005C60012406F01F06B4406C600468636001
:101500008368402B0368CFD1C9E700001000024078
:1015100088000240A0000240B800024010040240CF
:10152000085402587047000006484168002908D155
:101530000168491C0160502903D300210160012288
:10154000028270473809002410B519A009F01CFA6E
:1015500000214FF4004003F097FD014618A009F068
:1015600013FA00214FF4805003F08EFD01461AA0BB
:1015700009F00AFA00214FF0807003F085FD014662
:101580001BA009F001FA00214FF4803003F07CFD2C
:1015900001461CA009F0F8F900214FF4002003F0E7
:1015A00073FDBDE8104001461CA009F0EDB9000034
:1015B0000A0D666463616E5F696E697420000000E5
:1015C0000A0D464443414E20E697B6E9929F3A20E1
:1015D000256420487A0000000A0D5350493220E665
:1015E00097B6E9929F3A20256420487A00000000CF
:1015F0000A0D464D4320E697B6E9929F3A202564AE
:1016000020487A000A0D53444D4D4320E697B6E931
:10161000929F3A20256420487A0000000A0D414438
:1016200043E697B6E9929F3A20256420487A0A0D4E
:101630000000000070B58AB014216846FEF798FEDD
:1016400000240B4E022501214FF4A0508DE83300F9
:101650006946304602F0FCFEA803CDE90504CDE959
:10166000074505A9304602F0F3FE0AB070BD000040
:101670000010025872B6FEE70548054908390268AD
:1016800042F00202026008688004FCD57047000046
:101690000C480258014802F011BA0000B4020024BC
:1016A000014802F00BBA0000B4020024F0B5036850
:1016B0004FF6FC716D4C426BD3F884508D4345EA74
:1016C0008205C3F88450036853F8845F068F25F4BD
:1016D0007F0545EA06451D60836B654D9F180268CE
:1016E000D2F888308B4343EA8703C2F88830026817
:1016F00052F8883F868F23F4FE0343EA06431360C3
:10170000066856F8A03FC26B8B4307EB420243EAE0
:1017100082033360076857F8A03FB0F8406023F4B5
:10172000FE0343EA06433B60D0E9103603FB062282
:101730000368D3F8B0608E4346EA8206C3F8B0600F
:101740000368B0F84860D3F8B07027F4FE0747EAA2
:101750000646C3F8B060D0E91267036806FB0722AB
:10176000D3F8AC608E4346EA8206C3F8AC60D0E999
:101770001467036806FB0722D3F8F0608E4346EA3D
:101780008206C3F8F0600368B0F85860D3F8F070D0
:1017900027F47C1747EA0646C3F8F0600368876DB4
:1017A00053F8C06F02EB47028E4346EA820119608C
:1017B0000168B0F85C20D1F8C03023F47C1343EA10
:1017C0000242C1F8C020016890F86020D1F8C03012
:1017D00023F07C5343EA0262C1F8C020416B04EB62
:1017E0008101C166826B01EB82020267C36B02EB6F
:1017F000C3024267D0E91034634302EB830282677D
:10180000D0E91234634302EB8302C267D0E9143497
:10181000634302EB8302C0F88020836D02EBC303B5
:10182000C0F88430C46D826E544303EB8403C0F867
:101830008830046E544303EB8402C0F89020AA421F
:101840000AD9D0F89C20032142F02002C0F89C2045
:1018500080F898100120F0BD002200E004C1D0F80B
:1018600090308B42FAD80020F0BD000000AC004060
:10187000FCD30040F0B58E680C69D1E9005744EA0A
:101880000604DFB145F080452C43866ED1E906C5DC
:101890004F695E4391F8203045EA0C05B1F80CC061
:1018A000D0F884E0002047EA0363104F1D430EEB9D
:1018B000860345EA0C45E3E8024511E044EA854425
:1018C000E3E71418155CA67894F803C094F801E0D7
:1018D000360445EA0C6446EA0E252C43001D10C36D
:1018E000CC683C5D8442ECD8F0BD0000E0BE00084E
:1018F00070B514460207C1F30C06D2088AB042EA5A
:101900000632C4F30B0600210E9D324300924FF0C5
:101910008044CDE901410128CDE903510DD00020DB
:1019200005904FF400120648CDE906211A460891A9
:10193000694601F057FF0AB070BD4FF48010EFE721
:10194000B40200240B4A5FF0000110B501EB410323
:1019500002EBC304247D44B132F83330834204D116
:1019600001EB410002EBC00010BD491C0329EDDB77
:10197000002010BDB80800240248008802490880F1
:10198000704700000C01002418090024F8B5002756
:10199000044615460E46009790F8500001280BD0DB
:1019A000012084F850002046FFF790F80100606D98
:1019B00004D040F010002DE00220F8BD20F4885043
:1019C00040F002006065206806F4803205F0804334
:1019D000134D1A4383682B401A4342F00042826041
:1019E000104A20680EE0009B5B1C0093934209D3D1
:1019F000606D84F8507020F0020040F010006065C7
:101A00000120F8BD8368DB0FEDD1606D20F002008E
:101A100040F001006065084684F85070F8BD000091
:101A2000C0FFFE3F00F8C3252DE9F0470F4690F8B0
:101A300050109AB0044601294FF0000915D0002635
:101A4000DFF8F880012084F850001596169621687A
:101A500041450ED13A4D0095284606F0A9F8824638
:101A6000206806F0A5F860B10EE002201AB0BDE8CB
:101A7000F087606D84F8506040F0200060650120C0
:101A8000F4E7BAF1000F09D0616D4FF0010941F0A0
:101A900020006065484684F85060E7E720684146CA
:101AA000884201D0A84201D1264800E0264840F6ED
:101AB0001F72D7F800C0254BBCF1000F23D0D0F81F
:101AC00008C0D7F804802CF4404C4CEA080CC0F84D
:101AD00008C0D4F800C08C4501D0AC4507D1896856
:101AE000AB6801F0010103F00103194302E09968BA
:101AF00001F001010029CDD1BD683968836829430F
:101B00009343194317E0876827F4404787602768A5
:101B10008F4201D0AF4207D18968AB6801F0010163
:101B200003F00103194302E0996801F00101002963
:101B3000B0D1816891438160ACE700000020024091
:101B40000021024000230240006302580060025856
:101B50002DE9F84F0446EB4E0020DFF8ACB30090BF
:101B6000002794F850000D46DFF8A0A3012808D004
:101B70004FF0010984F85090206806F015F818B16C
:101B800071E10220BDE8F88F286800280EDB21688B
:101B90000303CA6928D090FAA0F0B0FA80F000BF21
:101BA00000F01F0309FA03F00243CA61D5E90012ED
:101BB0004FF00C0C20681F23C1F384610CEA921CC7
:101BC00002F01F02604493409140026B9A430A4323
:101BD0000263206805F0E8FF8046206805F0E0FF1A
:101BE00058EA000003D08DE0C0F38460D8E72A688B
:101BF000042320684FF0070CA96803EAD253184465
:101C00004369C2F304520CFA02FC914023EA0C032C
:101C10000B434361BE490968B9EB117F06D12168C6
:101C20006869C968C1F38201490008E02068C16899
:101C3000C906C1686869F5D501F0100149088840F6
:101C4000296904292ED023682A6803EB810102F058
:101C5000F8420B6E024303F0004010430866697EB1
:101C600022682869012917D05FF0000102EB80008B
:101C7000026E22F000420A430266297E20682A6929
:101C800001290CD00021036902F01F02914023F4C6
:101C9000F0420A43026135E04FF00041E6E74FF4BD
:101CA0000061F0E720682978026E02F0F842B2EB9A
:101CB000816F03D1016E21F000410166206829780F
:101CC000426E02F0F842B2EB816F03D1416E21F017
:101CD0000041416620682978826E02F0F842B2EB3A
:101CE000816F03D1816E21F00041816620682978DF
:101CF000C26E02F0F842B2EB816F03D1C16E21F0E7
:101D00000041C1662068816811F0010F72D150F85E
:101D1000C03F2A7BDFF8FCC1296802F018022CFAC8
:101D200002FCC1F3130823EA08030CEA010C43EA9E
:101D30000C030360E96859456CD177482268DFF8E5
:101D4000DCC1DFF8DCB18242DFF8D8E17648774BBE
:101D5000DFF8DC8122D12968614524D0B1EB4C0C3D
:101D600038D0A1F1496CBCF1080C35D0A1F1865CEA
:101D7000BCF1100C32D0DFF8BCC1614528D07145F0
:101D80003AD0814230D0994232D06B48814201D161
:101D90006A4831E041452ED169482DE0B2422AD14E
:101DA0002968614501D1012026E0A1F1066CBCF152
:101DB000040C0FD0A1F1496CBCF1080C0CD0A1F1BE
:101DC000865CBCF1100C09D0DFF868C1614507D111
:101DD0005C4811E058460FE05B480DE05B480BE0C3
:101DE000714509D0814201D1184605E09942D1D10F
:101DF000574801E03CE00020D16903031AD090FA73
:101E0000A0F0B0FA80F000BF00F01F0309FA03F061
:101E10000143D161D5F800C0BCF1000F28DA3E4B78
:101E200020684C49DFF83091984201D0B04203D18C
:101E30000A4602E0800EE7E74A469268984202F0BE
:101E4000E07201D0B04209D19D68D6F8088005F053
:101E5000010508F0010845EA080503E0DAF8085032
:101E600005F001054DB1606D012740F0200060656F
:101E7000002084F85000384684E6384DAC451CD12B
:101E800015021AD45045F3D1984202D0B04200D086
:101E900049468B6842F4000023F0E07202438A60F6
:101EA00030492F480968B1FBF0F04000801C00E089
:101EB000401E00900028FBD1DAE72B4DAC450CD139
:101EC000D5010AD45045D3D1984202D0B04200D0B7
:101ED00049468B6842F080700EE0244DAC45C7D176
:101EE0005502C5D45045C3D1984202D0B04200D06B
:101EF00049468B6842F4800023F0E07202438A6016
:101F0000B6E70000002102400000FF4700600258D1
:101F10000010005CFFFF0F000020024002003004B0
:101F2000400020190004002A0008302E0010603202
:101F30000000844B2000F0140000214300005247B1
:101F40000000B84F0002B0258000501D0001802124
:101F5000002090360023024000630258000084CB2A
:101F6000400D030014000024000052C70000B8CF49
:101F70007047704710B500F021F80446800702D57D
:101F800005A008F001FD600704D5BDE8104006A0DB
:101F900008F0FABC10BD00000D0A20414443206542
:101FA00072726F72000000000D0A20444D41204102
:101FB0004443206572726F7200000000806D7047AC
:101FC000F8B54FF0000604003546009602D0606D6B
:101FD00010B107E00120F8BD204600F005F9A66524
:101FE00084F8506020688168C1F3407119B181683C
:101FF000704A1140816020688168C1F3007181B925
:1020000081686D4A114041F0805181606C496B4894
:102010000968B1FBF0F0401C00E0401E0090002871
:10202000FBD120688168C1F3007141B9616D012560
:1020300041F010016165A16D41F00101A16505F05C
:10204000B3FD616DC90600D420B1606D012540F07B
:10205000100093E0606D20F4807040F00200606535
:102060002068816811F0010F1FD1564A564B9042EB
:1020700001D0984207D191689E6801F0010106F0F5
:102080000106314303E05149896801F0010161B95A
:10209000904201D0984201D14D4800E04D488268FD
:1020A000616822F47C120A43826002F0F5FA41F280
:1020B0000301884202D9A06810280CD0617D227FDC
:1020C000A368206B490341EA024118430843217F7A
:1020D00001290CD010E0607D227F216B400340EA93
:1020E000024241F01000104340F00C00EFE7218C59
:1020F000394A02EB41410843616A29B1A26A01F4FD
:102100007871014342EA01002168344BCA681A40E1
:102110000243CA60206805F047FD0646206805F0C6
:102120003FFD30431DD1216844F20303267DE26A5E
:10213000C86842EA863298431043C86094F8380071
:1021400001281ED02068016921F001010161206889
:10215000626B016921F07041114301612046FEF775
:10216000EBFBE068012820681CD0016B21F00F0117
:102170000163606D20F0020040F0010060652846B8
:10218000F8BD2068A28F164FD4E9101C154E07EB3E
:102190000247A36C026941EA0C013B4332401943F8
:1021A0001143D3E7A269016B521E21F00F011143C5
:1021B000DEE70000C0FFFF5FC0FFFF7F400D0300B0
:1021C0001400002400200240002102400060025858
:1021D00000230240006302580000FEFF03C0F0FF2E
:1021E0000100FFFF1EF800FC2DE9F04186B080469B
:1021F00014216846FEF7BCF8434B0025D8F80010C0
:1022000003244048414A994256D13E4908390B6857
:1022100043F020030B60096801F02001059101687B
:1022200041F004010160016801F0040105910168B9
:1022300041F001010160016801F0010105910168AF
:1022400041F0020101600068694600F0020005905B
:1022500033208DE83100104602F0FAF8FF2069467D
:102260008DE831002A4802F0F3F8009469462948C5
:10227000CDE9014502F0ECF828480921264C021569
:10228000C31420608715C4E90115D001C4E90352C5
:1022900004F11401C4E90805D600204681E8C8000D
:1022A00000F02AFF08B1FFF7E5F9C8F84C40C4F880
:1022B000388006B0BDE8F081194B9942F9D1016828
:1022C00041F080710160016801F080710591016841
:1022D00041F0040101600068694600F004000590C7
:1022E00001208DE83100104602F0B2F84FF0806016
:1022F000014604F0D5F94FF00060014604F0D0F932
:10230000D7E70000E04402580020024000080258CD
:1023100000000258000402588C0100241000024002
:10232000006002582DE9F047384E04460068914697
:10233000DFF8DC808A46B04201D0404501D1354902
:1023400000E03549896801F01F0505F02DFC0028E3
:1023500059D194F85000012855D001204FF00007C2
:1023600084F8500025B1052D02D0092D00D003E0DE
:102370002046FEF7E3FB18B184F85070BDE8F08703
:10238000616D40F6016320689943404541F48071D6
:10239000616500D00646864200D01DB9606D20F40C
:1023A00080106065606DC00404D5A06D20F006004B
:1023B000A06500E0A7651C20E16C184ACA63E26CC6
:1023C00017491164E26C1749D1642168086084F8E8
:1023D00050702068416841F0100141602068E16A56
:1023E000C26822F003020A43C26021684B46E06CD7
:1023F0005246403101F062F821680B4B8A681A405E
:10240000121D8A60BAE70220B8E7000000200240EF
:10241000002102400023024000630258410A0008E4
:10242000C30A0008A90A0008C0FFFF7F2DE9F84F82
:10243000044602F037F900903CB194F835000228C8
:1024400006D0802161650020E4E00120BDE8F88F1E
:10245000C74DC74EC649183520683036DFF814839B
:10246000DFF814938842DFF814A3DFF814B32ED0FA
:10247000A8422CD0B0422AD0404528D0484526D08A
:10248000504524D0584522D0BD4A183290421ED023
:10249000BC4A90421BD0BB4A1832904217D0B94A6E
:1024A0003032904213D0B74A483290420FD0B54AEA
:1024B000603290420BD0B34A7832904207D0B14A92
:1024C0009032904203D0AF4AA832904209D10268BC
:1024D00022F01E0202602068426922F080024261FE
:1024E00003E0026822F00E02026027688F4238463D
:1024F0004DD0A8424BD0B04249D0404547D0484586
:1025000045D0504543D0584541D09D4A183290425D
:102510003DD09C4A90423AD09A4A1832904236D0E6
:10252000984A3032904232D0964A483290422ED069
:10253000944A603290422AD0924A7832904226D011
:10254000904A9032904222D08E4AA83290421ED0B9
:102550008D4A90421BD08C4A1432904217D08A4A3E
:102560002832904213D0884A3C3290420FD0864A9B
:10257000503290420BD0844A6432904207D0824A53
:102580007832904203D0804A8C32974204D1206E38
:10259000026822F48072026075492068884228D05F
:1025A000A84226D0B04224D0404522D0484520D071
:1025B00050451ED058451CD071491831884218D05A
:1025C0007049884215D06F491831884211D06D4941
:1025D000303188420DD06B494831884209D0694971
:1025E0006031884205D067497831884201D0654919
:1025F0009031016821F0010101600EE002F052F813
:102600000099401A052808D920226265032100207C
:1026100084F8351084F8340017E73868C007EDD126
:10262000534A0121206890422ED0A8422CD0B042BB
:102630002AD0404528D0484526D0504524D058457A
:1026400022D04F4B183398421ED04E4B98421BD08D
:102650004C4B1833984217D04A4B3033984213D022
:10266000484B483398420FD0464B603398420BD0CA
:10267000444B7833984207D0424B9033984203D072
:10268000404BA833984208D194F85C703F23A06D6A
:1026900007F01F07BB40836007E094F85C30A06D33
:1026A00003F01F0301FA03F34360206890424DD00A
:1026B000A8424BD0B04249D0404547D0484545D0CC
:1026C000504543D0584541D02D4A183290423DD014
:1026D0002C4A90423AD02B4A1832904236D0294A9E
:1026E0003032904232D0274A483290422ED0254A8A
:1026F000603290422AD0234A7832904226D0214A32
:102700009032904222D01F4AA83290421ED01E4AD8
:1027100090421BD01C4A1432904217D01A4A2832D9
:10272000904213D0184A3C3290420FD0164A503291
:1027300090420BD0144A6432904207D0124A783249
:10274000904203D0104A8C3290420BD1D4E9190246
:102750004260E06E30B1026822F480720260D4E917
:102760001C024260002084F8351084F834006DE6C5
:1027700010000240580002407000024088000240F1
:10278000A000024010040240085402582DE9F05FF6
:1027900028B190F83510022904D08021416501202C
:1027A000BDE8F09F904C904B0168183C18338E4A5E
:1027B000DFF83C92A1428D4CDFF838E28E4FDFF813
:1027C0003CB2DFF83CA28F4D8F4E31D091422FD0DA
:1027D00099422DD0A1422BD0494529D0714527D00F
:1027E000B94225D0DFF810C20CF1180C61451FD09A
:1027F000DFF808C2ACF1600C614519D0DFF8FCC10C
:10280000ACF1480C614513D0DFF8F0C1ACF1300CED
:1028100061450DD0DFF8E4C1ACF1180C614507D07B
:10282000594505D0514503D0A94201D0B1422CD120
:10283000DFF8B4C14FF0040880F83580ACF1180C13
:1028400061451DD091421BD0994219D0A14217D0A9
:10285000494515D0714513D0B94211D0664818309A
:1028600081420DD065486038814209D063484838BC
:10287000814205D061483038814201D05F48183824
:10288000086820F001000860ABE0D1F800C02CF02F
:102890000E08DFF854C1C1F80080ACF1180C0168D3
:1028A000614527D0914225D0994223D0A14221D021
:1028B00049451FD071451DD0B9421BD0DFF838C142
:1028C0000CF1180C614515D0DFF830C1ACF1600C8B
:1028D00061450FD0DFF824C1ACF1480C614509D047
:1028E000DFF818C1ACF1300C614503D0DFF80CC142
:1028F000ACF1180CD1F800C02CF0010CC1F800C0EC
:10290000DFF8E4804FF0010C0168A8F11808414598
:1029100046D0914244D0994242D0A14240D049454C
:102920003ED071453CD0B9423AD0334A1832914238
:1029300036D0324A603A914232D0304A483A9142D7
:102940002ED02E4A303A91422AD02C4A183A91423F
:1029500026D0594524D0514522D0A94220D0B14299
:102960001ED02A4A91421BD0284A1432914217D0D5
:10297000264A2832914213D0244A3C3291420FD049
:10298000224A503291420BD0204A6432914207D001
:102990001E4A7832914203D01C4A8C32914218D19F
:1029A000016E0A6822F480720A6090F85C20816DE2
:1029B00002F01F020CFA02F24A60D0E919124A60D2
:1029C000C16E31B10A6822F480720A60D0E91C122B
:1029D0004A600022016D80F835C080F8342001B1D2
:1029E00088470020DCE60000280002405800024032
:1029F0007000024088000240A000024070040240C3
:102A000088040240A0040240B8040240085402585E
:102A10002DE9FC5F0446F74E0020DFF8D8830090D4
:102A20004FF41652F44808F11808A56DDFF8C49366
:102A3000DFF8C0A3016809F1300920680AF1480AEB
:102A4000B1FBF2F1B04201912F68D5F800C0DFF878
:102A5000ACB335D04146884232D0484530D050459D
:102A60002ED058452CD0E5491831884228D0E3496A
:102A70003031884224D0E1494831884220D0E049B1
:102A800088421DD0DE491831884219D0DC493031E6
:102A9000884215D0DA494831884211D0DFF860E326
:102AA0000EF1600E70450BD0D54A7832904207D0B7
:102AB000D34B9033984203D0D149A83188427DD17D
:102AC00094F85C20082102F01F0201FA02F23A4257
:102AD0004AD0B04232D0404530D048452ED0504543
:102AE0002CD058452AD0C54A1832904226D0C34A25
:102AF0003032904222D0C14A483290421ED0C04A61
:102B000090421BD0BE4A1832904217D0BC4A303295
:102B1000904213D0BA4A483290420FD0B84A60323D
:102B200090420BD0B64A7832904207D0B44A9032E5
:102B3000904203D0B24AA832904203D1026802F018
:102B4000040202E0026802F008026AB1026822F0A0
:102B50000402026094F85C0000F01F008140A9604C
:102B6000606D40F00100606594F85C00012100F0A8
:102B70001F008140394240D02068B04234D04045E7
:102B800032D0484530D050452ED058452CD09B4AA5
:102B90001832904228D0994A3032904224D0974A35
:102BA0004832904220D0964A90421DD0944A183222
:102BB000904219D0924A3032904200E0AFE113D0F7
:102BC0008F4A483290420FD08D4A603290420BD0EB
:102BD0008B4A7832904207D0894A9032904203D093
:102BE000874AA83290427DD1406910F0800F04D00E
:102BF000A960606D40F00200606594F85C000421FB
:102C000000F01F00814039423ED02068B04232D0EF
:102C1000404530D048452ED050452CD058452AD07C
:102C2000764A1832904226D0744A3032904222D0EE
:102C3000724A483290421ED0714A90421BD0704A6C
:102C40001832904217D06E4A3032904213D06C4AFC
:102C5000483290420FD06A4A603290420BD0684AA4
:102C60007832904207D0664A9032904203D0644A4C
:102C7000A83290424ED1006810F0020F04D0A96033
:102C8000606D40F00400606594F85C00102100F075
:102C90001F008140394258D02068B04234D04045AE
:102CA00032D0484530D050452ED058452CD0534ACC
:102CB0001832904228D0514A3032904224D04F4AA4
:102CC0004832904220D04E4A90421DD04C4A183291
:102CD000904219D04A4A3032904215D0484A483280
:102CE000904200E014E00FD0454A603290420BD091
:102CF000434A7832904207D0414A9032904203D002
:102D00003F4AA832904207D1006800F0080006E070
:102D1000006872E70068B7E7006800F00400A0B13F
:102D2000A96020680168490304D50068000308D53C
:102D3000A16C07E00168C90503D4016821F008010E
:102D40000160216C09B12046884794F85C0020217D
:102D500000F01F008140394279D02068B04232D063
:102D6000404530D048452ED050452CD058452AD02B
:102D7000224A1832904226D0204A3032904222D045
:102D80001E4A483290421ED01D4A90421BD01C4A17
:102D90001832904217D01A4A3032904213D0184A53
:102DA000483290420FD0164A603290420BD0144AFB
:102DB0007832904207D0124A9032904203D0104AA3
:102DC000A832904203D1006800F0100002E00068D1
:102DD00000F00200B0B3A96094F835000428206820
:102DE00001680FD049037ED5006800032BD4616CC5
:102DF0002AE000001000024014000024700002408D
:102E00001004024021F0160101602068416921F0A0
:102E100080014161206C08B9A06C20B12068016874
:102E200021F00801016094F85C303F21012003F09B
:102E30001F0300229940A96084F8350084F83420EB
:102E4000216D65E003E0E16B09B120468847606DC4
:102E500000287DD0606DC00759D02068042184F817
:102E60003510B0422BD0404529D0484527D0504599
:102E700025D0584523D09D49884220D09B49183100
:102E800088421CD099493031884218D098498842EC
:102E900015D097491831884211D095493031884270
:102EA0000DD093494831884209D091496031884218
:102EB00005D08F497831884201D08D499031016821
:102EC00021F00101016020680099019A491C0091DC
:102ED000914202D80168C907F6D10068C00710D036
:102EE00003200FE0FFE70168C905ACD403680121A6
:102EF000002223F01003036084F8351084F8342096
:102F0000A1E7012084F83500002084F83400E16C4A
:102F100000291DD002B02046BDE8F05F0847754982
:102F200088421DD073491431884219D07149283123
:102F3000884215D06F493C31884211D06D495031DB
:102F400088420DD06B496431884209D0694900E05C
:102F500084E07831884203D066498C3188427DD143
:102F600094F85C800427016808F01F0807FA08F746
:102F700017EA0C0F009746D04F0744D500980F046E
:102F8000686003D5C8033CD4A16CC1E7880638D477
:102F90002068B0422DD055496039884229D0484533
:102FA00027D0504525D0584523D05049884220D0BD
:102FB0004E49183188421CD04C493031884218D0D3
:102FC0004B49884215D04A491831884211D04849A6
:102FD000303188420DD046494831884209D0704589
:102FE00007D0904205D0984203D04149A831884289
:102FF00003D1016821F0080102E0016821F0040119
:103000000160216C84E7022707FA08F717EA0C0F22
:1030100000974ED08F074CD500980F04686003D5F9
:10302000C80344D4616C73E7880640D42068B0427A
:103030002FD02E49603988422BD0484529D05045A1
:1030400027D0584525D02949884222D02749183110
:1030500088421ED025493031884200E044E018D033
:103060002349884215D022491831884211D020497D
:10307000303188420DD01E494831884209D0704510
:1030800007D0904205D0984203D01949A831884210
:1030900003D1016821F0140102E0016821F00A0166
:1030A0000160012184F83510002084F83400E16BC0
:1030B0002EE7082202FA08F212EA0C0F14D00907D0
:1030C00012D5016821F00E01016094F85C10012016
:1030D000002201F01F0100FA01F16960606584F8C7
:1030E000350084F8342012E7BDE8FC9F88000240D8
:1030F00010040240085402582DE9F05F044601F024
:10310000D1FA002C07467DD0E34E022120684FF013
:103110000308DFF888934FF00005DFF884A3B0427E
:10312000DFF880B334D0DC4A1832904230D04845C2
:103130002ED050452CD058452AD0DA4A1832904229
:1031400026D0D84A3032904222D0D64A48329042D5
:103150001ED0D54A90421BD0D34A1832904217D085
:10316000D14A3032904213D0CF4A483290420FD0E9
:10317000CD4A603290420BD0CB4A7832904207D091
:10318000C94A9032904203D0C74AA83290427DD1BA
:1031900084F83510B04284F834502ED0BE4918312E
:1031A00088422AD0484528D0504526D0584524D0BA
:1031B000BC491831884220D0BA49303188421CD0ED
:1031C000B8494831884218D0B749884215D0B64925
:1031D0001831884211D0B449303188420DD0B249FB
:1031E0004831884209D0B0496031884205D0AE49A3
:1031F0007831884201D0AC499031016821F0010159
:10320000016008E027E100BF01F04CFAC01B05286F
:1032100001D920211CE120680068C007F4D104F125
:1032200008002168D4E9053C8E4685C8096810432A
:10323000D4E907281F43636A38439C4F40EA0C00D7
:103240001043394040EA0800042B40EA010003D152
:10325000D4E90B1211430843954909686FF30F0134
:10326000B1F1005F0FD36168A1F12902052A08D9E5
:10327000163A032A05D9083A012A02D94F390329F7
:1032800001D840F48010CEF8000000E023E0206870
:10329000676A4069042F20F0070047EA00070DD154
:1032A000D4E90A01074349B12046FEF701F828B1E5
:1032B00040206065012184F83510CCE0206847612A
:1032C0002046FDF713FF94F85C203F2102F01F0217
:1032D0009140816054E0774A90421BD0754B143383
:1032E000984217D0734B2833984213D0714B3C331C
:1032F00098420FD06F4B503398420BD06D4B6433D4
:10330000984207D06B4B7833984203D0694B8C338B
:1033100098427DD184F8351084F83450664B0168AA
:10332000A26801EA030E402A73D0802A72D00022DC
:10333000D4E90378D4E9053142EAD70242EAD80851
:103340005C4AD4E9077C48EAD30848EAD10141EA5B
:10335000D701524241EA1C11142341EA0E010160D7
:1033600020681044B0FBF3F08000E0652046FDF7D4
:10337000BDFE94F85C20012102F01F0291404160E3
:103380002068B04257D044491831884253D048454C
:1033900051D050454FD058454DD042491831884200
:1033A00049D040493031884245D03E494831884271
:1033B00041D03D4988423ED03B49183188423AD0FD
:1033C00039493031884236D037494831884232D085
:1033D0003549603188422ED03349783188422AD02D
:1033E00031499031884226D02F49A831884222D0D5
:1033F000304988421FD02F49143188421BD02D49B3
:103400002831884217D02B493C31884213D002E042
:103410001DE017E018E02749503188420BD02549BC
:103420006431884207D023497831884203D021494A
:103430008C31884229D12046FDF7B2FEA068802851
:103440000CD00CE0102273E74FF4804270E740216B
:10345000616584F835800120BDE8F09F6560216ECC
:1034600020790860D4E9190141606068401E07288E
:1034700008D82046FDF7E2FEE06E0560D4E91C01A5
:10348000416002E0E566256765670120656584F8AF
:1034900035000020E0E7000010000240400002403C
:1034A0005800024070000240100402403F8010FEAD
:1034B0000010005C085402580F00FEFF2DE9F84F81
:1034C00004008C464FF00000009014D094F83400B3
:1034D000012812D094F835500120002184F83400DE
:1034E000012D0CD0C00260650120009084F83410DA
:1034F0000098BDE8F88F0120FBE70220F9E78C4D2A
:103500000226206884F83560A8428A4D61658A4E9B
:103510008A4FDFF82C82DFF82C92DFF82CA2DFF83C
:103520002CB226D0A84224D0B04222D0B84220D01B
:1035300040451ED048451CD050451AD0584518D09B
:103540008349884215D082491831884211D0804978
:10355000303188420DD07E494831884209D07C49BB
:103560006031884205D07A497831884201D0784963
:103570009031016821F00101016061462046FDF7AC
:10358000C1FE6B49206888422CD0A8422AD0B042A4
:1035900028D0B84226D0404524D0484522D05045B6
:1035A00020D058451ED06A4A90421BD0684A183233
:1035B000904217D0664A3032904213D0644A483263
:1035C00090420FD0624A603290420BD0604A78320B
:1035D000904207D05E4A9032904203D05C4AA832B3
:1035E00090420CD1026822F01E0242F016020260E4
:1035F000206C88B12068026842F008020BE0026883
:1036000022F00E0242F00A020260206C20B1206813
:10361000026842F004020260206888424BD0A8424F
:1036200049D0B04247D0B84245D0404543D0484544
:1036300041D050453FD058453DD0454A90423AD0C0
:10364000434A1832904236D0414A3032904232D00A
:103650003F4A483290422ED03D4A603290422AD0B2
:103660003B4A7832904226D0394A9032904222D05A
:10367000374AA83290421ED0364A90421BD0354A73
:103680001432904217D0334A2832904213D0314A34
:103690003C3290420FD02F4A503290420BD02D4AEC
:1036A0006432904207D02B4A7832904203D0294AA4
:1036B0008C3290420DD1206E0268D20303D502688D
:1036C00042F480720260E06E18B1026842F48072C7
:1036D00002602068884226D0A84224D0B04222D07E
:1036E000B84220D040451ED048451CD050451AD085
:1036F000584518D01649884215D0154918318842C6
:1037000011D01349303188420DD0114948318842D7
:1037100009D00F496031884205D00D49783188427F
:1037200001D00B499031016841F001010160DFE6F1
:1037300010000240280002404000024058000240B1
:103740007000024088000240A0000240B800024021
:1037500010040240085402587047000010B590F859
:103760009830012B09D0022B07D0D0F89C1041F0E3
:103770000201C0F89C10012010BD03689C6D0C4232
:1037800003D1DC6D44F0010404E09C6D31EA0404D3
:103790001FD00324DC658B0505D50368D3F8E04012
:1037A0001443C3F8E0404B0505D50368D3F8E44063
:1037B0001443C3F8E4400068084A01EA0203446D78
:1037C000074A1C434465106840EA9170106000206D
:1037D00010BDDC6D44F00204DCE70000FFFFCF3FCA
:1037E00014A8004070B5044690F89800022804D050
:1037F000D4F89C0040F008000DE02068D0F8C030FC
:1038000013F07C5F0BD0D0F8C4309B020CD5D4F8F9
:103810009C0040F40070C4F89C00012070BDD4F8F6
:103820009C0040F02000F6E7D0F8C400C0F3044547
:1038300020462B46FEF71EF821680120A840C1F85B
:10384000D000C4F89400002070BD704770B590F8A7
:103850009820012A09D0022A07D0D0F89C1041F004
:103860000201C0F89C10012070BD0B68CA6883B1CA
:103870000B69072A43EA427325D00C7A4A6942EA67
:1038800084724968006F00EBC100C0E9003200207B
:1038900070BD072A0DD00C7AD6060D8A4B6943EA13
:1038A000847246EA0543C06E49681A4340F82120F5
:1038B000EDE70B8A4FF06055D1E9062442EA034256
:1038C00045EA0423EFE78A69DBE730B590F89850C2
:1038D000039C012D07D0D0F89C1041F00401C0F8E2
:1038E0009C10012030BD0D01016845EA820040EACC
:1038F00043002043C1F88000002030BD10B5040013
:103900000FD000F08DFC2068C16D21F00301C1656E
:10391000204600F085FB0020C4F89C0084F8980045
:1039200010BD012010BD704770470000F0B590F841
:1039300098500024022D04D0D0F89C1041F00801CA
:1039400029E0402905D0412929D0056D8D4219D99A
:1039500042E00568D5F8A06016F4FE0F12D0D5F845
:10396000A460760613D0D5F8A460F60105D5D5F885
:10397000A06016F0004F00D50124D5F8A470466F62
:10398000456C24E0D0F89C1041F0200103E0D0F811
:103990009C1041F48071C0F89C100120F0BD0568B6
:1039A000D5F8B06016F4FE0FECD0D5F8B46076060A
:1039B000EDD0D5F8B460F60105D5D5F8B06016F0B5
:1039C000004F00D50124D5F8B470866FC56CC7F3DD
:1039D00005273C44654302E0456DC66F4D4306EB49
:1039E00085052E6816F0804656602E6836D026F083
:1039F00060461660D5F800C000262E4F0CF0005C23
:103A0000C2F808C0D5F800C00CF0004CC2F810C0D5
:103A1000B5F804C01FFA8CFCC2F81CC0D5F804C06D
:103A2000CCF3034CC2F80CC0D5F804C00CF4801CD5
:103A3000C2F814C0D5F804C00CF4001CC2F818C0B9
:103A4000D5F804C0CCF3066CC2F820C0D5F804C089
:103A500008354FEADC7CC2F824C008E0C6F38A4689
:103A6000C7E700BF15F806C003F806C0761CD2F8F9
:103A70000CC017F80CC0B445F4D840290AD041292D
:103A80000CD020294FF001020CD200688A40C0F807
:103A900098200DE00068C0F8A84009E00068C0F870
:103AA000B84005E0006801F01F018A40C0F89C2082
:103AB0000020F0BDE0BE0008704700002DE9FF5F68
:103AC000DFF80CB304460BF10401DBF800002568B5
:103AD0000F68AA468007D5F85090696DD5F85080D8
:103AE0006E6D2A6DD5F854C02B6D00EA877000907A
:103AF00009F470496F6D286D01EA09010191DAF846
:103B00005410DAF85490DAF8505008F00F0806EA2A
:103B10000806029602F0F00203F071536FEA0906FC
:103B20001F4000F060700CEA020CCDF80CC0F205EA
:103B300001EA00090CD4E843C00509D400214FF480
:103B40008073CAF85030CBF800102046FFF7B4FF5E
:103B5000700512D4E84340050FD4206800234FF4C9
:103B60008068D0F8DC20D0F8E410C0F85080CBF8A2
:103B700000301140204600F098FBDFF858A2009872
:103B800050B12268830F00EA0A001065CBF80030BC
:103B900020460099FFF759FE019850B12268830F23
:103BA00000EA0A001065CBF800302046019900F0C9
:103BB0008BFB029850B12268830F00EA0A0010655F
:103BC000CBF800302046029900F09EFA039850B1DD
:103BD0002268830F00EA0A001065CBF80030204607
:103BE000039900F003FB30050CD4E843000509D429
:103BF000236800204FF400621A65CBF800002046CD
:103C000000F064FBB00512D4E84380050FD42068AF
:103C100000234FF40078D0F8D820D0F8E010C0F896
:103C20005080CBF800301140204600F03FFB3003BD
:103C30000CD4E843000309D4236800204FF4002289
:103C40001A65CBF80000204600F05CFAF0030CD4B3
:103C5000E843C00309D4236800204FF480321A657A
:103C6000CBF80000204600F01FFB70030CD4E843A3
:103C7000400309D4226800204FF480231365CBF859
:103C80000000204600F00FFBB0030FD4E843800390
:103C90000CD4236800204FF400321A65CBF80000E2
:103CA000D4F89C0040F08000C4F89C00B9F1000FEB
:103CB0000BD022684FEA997309EA0A001065CBF825
:103CC000003049462046FFF72FFE5FB12268BB0F48
:103CD00007EA0A001065CBF80030D4F89C0038439E
:103CE000C4F89C003C492068884268D160688146DD
:103CF0008068800763D0D9F82060D9F82410D9F8FB
:103D00002080D9F82400D9F820C0D9F82470D9F837
:103D10002030D9F82450D9F8202003F4FC4306F0D1
:103D20000F0AD9F824601D40D9F824B008F03008F3
:103D30000CF4C07C02F4F02211EA0A0100EA08083F
:103D400007EA0C0706EA0206D9F820A004D0C9F851
:103D50002010204600F0A4FAB8F1000005D06168F8
:103D600008624146204600F09DFA6FEA0B004006CB
:103D70000ED46FEA0A0040060AD460684021C36B83
:103D8000C26B01622046190C02F03F0200F089FA72
:103D90002FB1606807623946204600F080FA35B1DD
:103DA00060680562D4F89C002843C4F89C0036B1D2
:103DB00060680662D4F89C003043C4F89C00D4F8D4
:103DC0009C00002802D02046FFF7ADFDBDE8FF9F14
:103DD00010A80040FFFFCF3F00A000402DE9F041B8
:103DE00094B08D494C2204466846FCF7A8FA64B1A9
:103DF0008A4D2068A84202D100F58070606094F876
:103E000098004FF0000820B108E0012014B0BDE890
:103E1000F081204684F8998000F020F920688169BB
:103E200021F01001816100F03DFC0327064604E00B
:103E300000F038FC801B0A2811D820688069000730
:103E4000F6D42068816941F00101816100F02AFC0B
:103E500006460DE000F026FC801B0A2808D9D4F89D
:103E60009C0040F00100C4F89C0084F89870CCE7F6
:103E700020688069C007EDD02068816941F00201A7
:103E80008161207C01282068816937D041F04001A0
:103E90008161607C01282068816932D021F48041F1
:103EA0008161A07C0128206881692DD041F4805176
:103EB00081612068A268816921F4407111438161A8
:103EC0002068816921F0A40181612068016921F0E5
:103ED00010010161E068012819D010B302281BD03D
:103EE0002068816941F0800181612068016941F0A9
:103EF00010010161E06803280ED012E021F04001BA
:103F0000C6E741F48041CBE721F48051D0E7206837
:103F1000816941F0040103E02068816941F02001DA
:103F20008161207E6FF0FF02D4E90773A68A110237
:103F3000400602EB0727A0F10070384327685B1E9C
:103F4000184301EB06463043F861A068B0F5407FA6
:103F500011D104F12800A68C6FF00F0C89C801EB79
:103F60000641401E02EB0322104322680CEB0713AC
:103F700018430843D060206E30B12068626ED0F8DC
:103F8000C0101143C0F8C010D4E917126846D142DE
:103F900009D02168A36E51F8C82F50F8233022F0C1
:103FA00007021A430A60216C49B12168626C51F81A
:103FB000BC3F50F8226023F0070232430A60A16C34
:103FC00051B12168E36C51F8BC2F50F8233022F036
:103FD000700242EA03120A60216D51B12168626DDC
:103FE00051F8BC3F50F8220023F4E06242EA00207E
:103FF00008602068A84204D16068816821F003014C
:104000008160C4F894800121C4F89C8084F89810E1
:104010002046FDF74BFBF9E6F0BE000800A000408B
:1040200010B500680A49884210D10A48016821F495
:10403000807101600848032100F052F9132000F05C
:10404000E3FCBDE81040152000F0DEBC10BD000010
:1040500000A00040EC440258000C025810B5B6B065
:104060000446142130A8FCF783F9C0216846FCF708
:104070007FF92149206888423CD100204FF400415B
:10408000CDE900104A0368461C9201F061F908B1BD
:10409000FDF7F0FA1948016841F480710160006889
:1040A00000F48070359015480C38016841F0080123
:1040B000016000680923032100F00800359000200A
:1040C0003091022230A9CDE93120CDE933030C48EB
:1040D00000F0BEF900221320114600F0B3FC1320BB
:1040E00000F0A3FC00221520114600F0ABFC1520C7
:1040F00000F09BFC36B010BD00A00040EC4402581C
:10410000000C0258704700002DE9F0439BB0814637
:10411000C8074FF0000435D04021484601AB11AA32
:10412000FFF704FC48BB1298B0F1804F25D11199DC
:104130001DA0C1F30C35C1F30B08C1F343661499FC
:1041400006F022FC012E02D1149844281DD01BA099
:1041500006F01AFC01AF21461CA03A5D06F014FCE3
:10416000641CE4B2082CF6D3149801AB42462946ED
:10417000C0B20090304604F001FD00224846012103
:10418000FFF7ECFA1BB0BDE8F08314A006F0FCFBCF
:104190009DF8080001A90828284602D003F060FD18
:1041A000EBE703F011FDE8E70D0A446174614C652B
:1041B0006E6774683D202564200000002073686FDE
:1041C0007274636F6465200D0A0000007278646188
:1041D00074615B25645D3A25640D0A00206269679D
:1041E0005F636F6465200D0A00000000704790F85F
:1041F0009810012907D0D0F89C1041F00401C0F8B4
:104200009C1001207047022180F89810002201685C
:104210008B6923F001038B61C0F89C201046704726
:1042200010B590F898100022022906D0D0F89C1002
:1042300041F00801C0F89C1012E0016803238C696A
:1042400044F001048C6101680DE0322A0AD900BFF4
:10425000D0F89C1041F00101C0F89C1080F8983013
:10426000012010BD521C8C69E407EED08C6900223D
:1042700024F010048C61016802E0322AE8D8521C54
:104280008C692407F9D48C690023012244F00204CC
:104290008C61C0F8943080F89820184610BD7047A3
:1042A00070477047704770477047704701A006F02D
:1042B0006BBB00000D0A3132332020464443414E8F
:1042C000313D2020000000007047000001A006F0F2
:1042D0005BBB00000D0A464443414E313D202000A7
:1042E0002DE9F04F4F4D00224FF0010A4FF00F0B18
:1042F00092E000BF0AFA02F919EA01037ED022F027
:10430000030606F1B0469407D6F808C4270FDFF875
:1043100018810BFA07FE40450EEA0C0402D14FF05B
:10432000000C40E0DFF804C1604502D14FF0010C01
:1043300039E0DFF8FCC0604502D14FF0020C32E0FA
:10434000DFF8F0C0604502D14FF0030C2BE0DFF83E
:10435000E8C0604502D14FF0040C24E0DFF8DCC077
:10436000604502D14FF0050C1DE0DFF8D4C0604578
:1043700002D14FF0060C16E0DFF8C8C0604502D14C
:104380004FF0070C0FE0DFF8C0C0604502D14FF0DE
:10439000080C08E0DFF8B4C0604502D14FF0090C0A
:1043A00001E04FF00A0C0CFA07FCA44513D12C686D
:1043B0009C432C606F684FF0B0449F436F60676808
:1043C0009F43676027689F432760D6F8084424EA24
:1043D0000E04C6F8084407680323D4084FEA4208CD
:1043E0004FEA427C03FA08F34FEADC6C1F43076094
:1043F0000BFA0CF600EB8404276A00E00BE0B743ED
:104400002762C4689C43C460446824EA0904446089
:1044100084689C438460521C31FA02F37FF46AAFD3
:10442000BDE8F08F800000580000025800040258D8
:1044300000080258000C02580010025800140258DC
:1044400000180258001C025800200258002402588C
:104450002DE9F84F03247D4D00234FF001094FF063
:10446000B04B4FF00F0AE9E009FA03F73A4076D073
:104470000E7906F00306012E01D0022E18D1D0F8D5
:1044800008C04FEA430ECE6804FA0EF82CEA080C76
:1044900006FA0EF646EA0C068660D0F804C00E79DD
:1044A0002CEA070CC6F300169E4046EA0C0646604E
:1044B0000E79F643B6070BD0C6684FEA43088F68FB
:1044C00004FA08FC26EA0C0607FA08F73743C76027
:1044D0000E7906F00306022E12D1DE080F694FEAAC
:1044E000437C00EB8606B646366A4FEADC6C0AFA75
:1044F0000CF807FA0CF726EA08063743CEF82070C6
:104500000F7906684FEA430807F0030704FA08FC2E
:1045100007FA08F726EA0C06374307604E6816F4D8
:10452000403F1CD04A4E376847F002073760366874
:104530009F0706F00206009623F0030606F1B04638
:10454000B6463F0FD6F80864DFF808810AFA07FC80
:10455000404526EA0C0603D14FF0000C41E06CE028
:10456000DFF8F4C0604502D14FF0010C39E0DFF80C
:10457000ECC0604502D14FF0020C32E0DFF8E0C041
:10458000604502D14FF0030C2BE0DFF8D8C0604546
:1045900002D14FF0040C24E0DFF8CCC0604502D11A
:1045A0004FF0050C1DE0DFF8C4C0604502D14FF0AC
:1045B000060C16E0DFF8B8C0604502D14FF0070CDA
:1045C0000FE0DFF8B0C0604502D14FF0080C08E002
:1045D000DFF8A4C0604502D14FF0090C01E04FF0B4
:1045E0000A0C0CFA07FC4CEA060CCEF808C44F681B
:1045F000DBF80060FF0226EA020600D516435F469C
:10460000CBF80060D1F804C0DBF804605FEA8C2CC2
:1046100026EA020600D516437E606E684F6826EAD9
:104620000206BF0300D516436E602E684F6826EA67
:104630000206FF0300D516432E605B1C0A6832FA9F
:1046400003F67FF411AFBDE8F88F0000800000583A
:10465000F4440258000002580004025800080258AE
:10466000000C02580010025800140258001802589A
:10467000001C02580020025800240258426921EA16
:1046800002030A4043EA0241816170470AB1816135
:1046900070470904FBE7000001480068000C704700
:1046A0000010005C0148806870470000080000248A
:1046B00030B590F84120202A24D190F84020012ADA
:1046C00020D0012380F84030242280F8412020238C
:1046D00000240268156825F0010515600268156858
:1046E00025F480551560026815680D431560016852
:1046F0000A6842F001020A6080F8413080F84040C8
:10470000002030BD022030BD30B590F84120202A75
:1047100022D190F84020012A1ED0012380F8403099
:10472000242280F84120202400250268136823F009
:10473000010313600268136823F4706343EA0121E4
:10474000116001680A6842F001020A6080F8414085
:1047500080F84050002030BD022030BD70B504000C
:1047600004D094F84100002510B106E0012070BD8E
:10477000204684F8405000F051F8242084F841008D
:104780002068016821F001010160D4E9001020F0E7
:10479000706008612068816821F400418160E068F0
:1047A00021680128A06830D040F404408860E068A7
:1047B0000228206841682BD021F400614160206804
:1047C0002021154A4368134343602068C26822F4DD
:1047D0000042C26054F8106B0DCC104340EA032035
:1047E000F06054F81C3CD4E900021043186054F8FF
:1047F0001C0D026842F001020260656484F84110F9
:10480000256384F84250002070BD40F40040CDE79D
:1048100041F40061D2E700000080000210B5B6B09C
:104820000446142130A8FBF7A3FDC0216846FBF71E
:104830009FFD1949206888422BD100202690102125
:104840000446CDE90010684600F082FD08B1FCF78F
:1048500011FF1248016841F002010160006830ABAD
:10486000122100F0020035904FF44070062283E8D8
:1048700013000B4830A9CDE93342FFF7E9FD0748A3
:104880001430016841F080010160006800F0800090
:10489000359036B010BD0000001C0058E0440258AE
:1048A0000004025802488168027811448160704710
:1048B00008000024032010B500F0E4F801F092FB9A
:1048C0000F4A104914681368C4F3032203F00F035E
:1048D0008A5CC95C02F01F0201F01F01D0400A4A45
:1048E00020FA01F11160094908600F2000F010F86A
:1048F00008B1012010BD00F079F8002010BD0000C3
:104900001844025864BF0008180000241400002452
:1049100070B50D4D04462878A0B14FF47A71B1FB03
:10492000F0F00A490968B1FBF0F001F0C1FE48B9A6
:10493000102C07D200222146501E00F083F80020E0
:104940006C6070BD012070BD0800002414000024BC
:10495000154BF0B5083B427813491A600B680A1FE3
:1049600023F001030B6043681360057BC67A827AEB
:10497000437B2D07847B45EA0665C77B90F809C019
:10498000067A90F800E045EAC24040EA834040EAF7
:10499000444040EA074040EA0C2040EA460040EA32
:1049A0000E000860F0BD0000A0ED00E0BFF35F8FD7
:1049B000044800210368034A23F480330360703203
:1049C0001160704724ED00E0074A40F001000649FD
:1049D00070321060086840F480300860BFF34F8F79
:1049E000BFF36F8F7047000024ED00E0054808B565
:1049F000016841F002010160006800F002000090CF
:104A000008BD0000F444025800280DDB410900F005
:104A10001F028900012001F1E0219040C1F88001CE
:104A2000BFF34F8FBFF36F8F7047002809DB410939
:104A300000F01F028900012001F1E0219040C1F83F
:104A4000000170470E4BF0B41B680D46C3F3022300
:104A5000C3F10706042E00D90426191D072901D227
:104A6000002300E0DB1E012404FA06F19C40491EED
:104A70002940641E994014402143F0BC05F0C8BF92
:104A80000CED00E0064900F0070210B54FF6FF04F8
:104A90000868044B204040EA02201843086010BD1B
:104AA0000CED00E00000FA05BFF34F8F0548064A01
:104AB000016801F4E06111430160BFF34F8F00BF53
:104AC000FDE700000CED00E00400FA05134970B5A5
:104AD0000A68D243520705D5096801F007018142EF
:104AE00013D118E00A6822F0070202430A60FFF7B8
:104AF000D9FD0A4D4FF47A760446083D07E000BF21
:104B0000FFF7D0FD001BB04201D9012070BD28681D
:104B1000C0438004F4D4002070BD00000C4802584B
:104B2000F8B50446FFF7BEFD05461CB194F84100F8
:104B300010B107E00120F8BD204600F047F841F22F
:104B40008830A06420686FF0FF02A168036802EB60
:104B5000012223F4F85111430160A06C00222021AE
:104B60002B460090204604F023F80028E3D1226869
:104B7000D4E907352679E168176845EA0665DFF864
:104B800044C01943104B29430025012607EA0C07AE
:104B9000394311602268D4E90517B4F810C0D2F87F
:104BA00004E039430EEA030E4EEA0C431943516008
:104BB00021680A6842F001020A60656484F8416075
:104BC000F8BD00002FFFFF00FEF8E0FFF0B5B7B022
:104BD0000446142130A8FBF7CBFBC0216846FBF745
:104BE000C7FB2849206888424AD1002013904FF023
:104BF00000710446CDE90010684600F0A9FB08B139
:104C0000FCF738FD2048016841F4804101600068EC
:104C100000F4804035901C480C30016841F00201DE
:104C20000160016801F002013591016841F008015D
:104C3000016000680926154F022500F00800359034
:104C400004203090CDE93154CDE9334630A93846BF
:104C5000FFF7FEFB4FF460503090CDE931540C4823
:104C600030A9CDE93346FFF7F3FB0A21402030900D
:104C7000CDE93154CDE9334130A93846FFF7E8FB9F
:104C800037B0F0BD00500052D4440258000402581E
:104C9000000C025810B501F05FF905490968054A92
:104CA000C1F30211515C01F01F01C84010BD0000AA
:104CB0002044025864BF00084A4930B5494C0B1DD6
:104CC0000A680C3409681D68246802F0030305F0C3
:104CD0000102C1F30511C4F3CC04002914FB02F254
:104CE00000EE102AF8EE400A76D0414A9FED3E1AB7
:104CF000DFED3E1AB7EE000A23B1012B5AD0022B8A
:104D000018D15CE0374C283C23689B0612D5394B00
:104D1000246801EE901A1168C4F3C104F8EE612A08
:104D2000E34001EE903AC1F30801F8EE611A81EE1A
:104D3000A22A07E002EE101A1168F8EE422A81EE6C
:104D4000A22A45E001EE901A1168F8EE611A40EED1
:104D5000811A71EE800A62EE200AC1F3462101EE4B
:104D6000101AB8EE411A31EE001AC0EE811ABCEEEC
:104D7000E11A80ED001A1168C1F3064101EE101A24
:104D8000B8EE411A31EE001AC0EE811ABCEEE11AFB
:104D900080ED011A1168C1F3066101EE101AB8EE38
:104DA000411A31EE000A80EE801ABCEEC10A80ED95
:104DB000020A30BD01EE901ADFED0F2A03E001EE8A
:104DC000901ADFED0E2A1168F8EE611A82EEA12A20
:104DD000C1F30801B6E7FFE700210160416081608F
:104DE00030BD000028440258000000390024744CF3
:104DF000304402580090D0030024744A20BCBE4BBB
:104E0000494930B5484C0B1D0A68143409681D68BF
:104E1000246802F00303C5F30012C1F30531C4F3A3
:104E2000CC04002914FB02F200EE102AF8EE400A2E
:104E300075D03F4A9FED3D1AB7EE000A6BB1DFED2A
:104E40003D1A012B01D0022B64D002EE101A11681A
:104E5000F8EE422A81EEA22A21E0334C283C236856
:104E60009B0612D5344B246801EE901A1168C4F3E6
:104E7000C104F8EE612AE34001EE903AC1F3080163
:104E8000F8EE611A81EEA22A0BE001EE901ADFED36
:104E90002B2A00BFF8EE611A116882EEA12AC1F335
:104EA000080101EE901A1168F8EE611A40EE811ABD
:104EB00071EE800A62EE200AC1F3462101EE101A5B
:104EC000B8EE411A31EE001AC0EE811ABCEEE11ABA
:104ED00080ED001A1168C1F3064101EE101AB8EE18
:104EE000411A31EE001AC0EE811ABCEEE11A80EDD3
:104EF000011A1168C1F3066101EE101AB8EE411AE9
:104F000031EE000A80EE801ABCEEC10A80ED020A82
:104F100030BD04E001EE901ADFED092ABAE7002166
:104F2000016041608160F3E72844025800000039C5
:104F3000384402580024744A0090D0030024744C72
:104F400020BCBE4B494930B5484C0B1D0A681C3487
:104F500009681D68246802F00303C5F30022C1F349
:104F60000551C4F3CC04002914FB02F200EE102A10
:104F7000F8EE400A75D03F4A9FED3D1AB7EE000AA1
:104F80006BB1DFED3D1A012B01D0022B64D002EE94
:104F9000101A1168F8EE422A81EEA22A21E0334C61
:104FA000283C23689B0612D5344B246801EE901AE6
:104FB0001168C4F3C104F8EE612AE34001EE903AAF
:104FC000C1F30801F8EE611A81EEA22A0BE001EEAE
:104FD000901ADFED2B2A00BFF8EE611A116882EEFD
:104FE000A12AC1F3080101EE901A1168F8EE611AC6
:104FF00040EE811A71EE800A62EE200AC1F346216A
:1050000001EE101AB8EE411A31EE001AC0EE811A04
:10501000BCEEE11A80ED001A1168C1F3064101EE01
:10502000101AB8EE411A31EE001AC0EE811ABCEE29
:10503000E11A80ED011A1168C1F3066101EE101A40
:10504000B8EE411A31EE000A80EE801ABCEEC10AB9
:1050500080ED020A30BD04E001EE901ADFED092A6E
:10506000BAE70021016041608160F3E728440258FB
:1050700000000039404402580024744A0090D003D4
:105080000024744C20BCBE4B2DE9F04FAC4A0546C1
:10509000DFF8A8A280F48070DFF8AC9289B0131119
:1050A000AA4C0843A748AAF104064FF0805C4FF0D1
:1050B00000582CD085F400770F4357D0DFF87CB22E
:1050C00085F480670F430BF1080B61D085F400670E
:1050D0000F4374D085F480570F436ED085F400578A
:1050E0000F434FF480394FF4003E67D085F400271A
:1050F0000F4371D085F480370F436ED085F480461E
:105100000E436BD085F400420A4368D02AE0DAF8F7
:10511000001001F00701052924D2DFE801F075BC79
:105120007D25B10006A8FFF7C7FD079809B0BDE8C7
:10513000F08F6846FFF764FE0098F7E703A8FFF7D3
:1051400001FF0398F2E72068C0F3C10022FA00F0E3
:10515000ECE72268D20571D561456FD11846E5E7C5
:105160004145E3D00020E1E74846DFE7DAF80010E8
:1051700001F4E07180294FD004DC002944D040299B
:10518000F0D188E0C029EFD0B1F5807FEAD177E097
:10519000DBF8001001F46001B1F5800F3CD004DCB5
:1051A00091B3B1F5001FDDD175E0B1F5C00FDBD0D3
:1051B000B1F5000FD6D163E001E018E030E0DBF894
:1051C000001001F0E061B1F1007F25D008DCD9B119
:1051D000B1F1807FC6D15EE049E06CE079E09CE00F
:1051E000B1F1407FC0D0B1F1806FBBD148E0DAF8B7
:1051F000001001F4E041B1F5005F0DD005DC19B1FC
:10520000B1F5805FAED146E094E0B1F5405FABD040
:10521000B1F5804FA6D133E020688000A2D58DE79C
:10522000DAF8001001F4E021B1F5403F6CD006DC63
:1052300061B149457AD0714594D157E037E0B1F575
:10524000802F65D0B1F5A02F8CD10CE000F0A6FE28
:105250006CE76846FFF7D4FD019867E703A8FFF7FE
:1052600071FE049862E721688903F1D47AE7DBF8DC
:10527000001011F440310ED0494510D07145F5D1E0
:105280003168256801F040516D077FF562AF002954
:105290007FF45FAF57E720680001E7D549E7206852
:1052A0008000E3D503A8FFF74DFE05983EE722688E
:1052B0009203DBD554E7306810F480303AD048458B
:1052C000D4D120680001D1D56846FFF799FD029836
:1052D0002CE7DBF8001001F0E041B1F1405F13D0A2
:1052E00008DC71B1614521D04145BFD12068800003
:1052F000B4D437E7B1F1804F0AD0B1F1A04FB2D0AA
:1053000030E7FFF7C7FC11E720684007AED51AE782
:105310002068C005AAD521E708E0DAF8001011F0EE
:105320004051A0D0614505D041459FD12068000182
:105330008FD417E72068800198D5F3E650440258CF
:105340000090D00340787D010080BB0000440258EB
:105350002DE9FE4F0546DFF8E48350F8081B0024D2
:10536000F64FC943019005F12800264608F12408AC
:10537000009008011DD4A86E50B1B0F5801F0CD06C
:10538000B0F5001F0ED0B0F5401F1ED001240FE075
:10539000386840F40030386017E00198022103F0CB
:1053A00079FC03E00098022103F004FD04000CD016
:1053B00026462888C043C00523D4A86D05281ED2E0
:1053C000DFE800F00C11161B1B00AA6ED8F80010C5
:1053D00021F440111143C8F80010EAE7386840F49E
:1053E0000030386009E00198002103F053FC03E02D
:1053F0000098002103F0DEFC044674B100E00124B3
:1054000026462888C043800528D4E86D80281ED011
:105410000CDC90B140280ED114E0AA6DD8F8001031
:1054200021F007011143C8F80010EAE7C02813D0A3
:10543000B0F5807F10D001240FE0386840F40030D0
:10544000386009E00198002103F024FC03E0009893
:10545000002103F0AFFC04469CB126462888DFF803
:10546000DC92C04309F12C0940052CD4D5F8A800E2
:10547000B0F5800F20D00DDCA0B1B0F5001F0FD12A
:1054800015E0EA6DD8F8001021F4E0711143C8F876
:105490000010E3E7B0F5C00F13D0B0F5000F10D047
:1054A00001240FE0386840F40030386009E00198CA
:1054B000002103F0EFFB03E00098002103F07AFCE9
:1054C00004467CB126462888C04300052DD4D5F873
:1054D000AC00B0F1007F21D00EDCA8B1B0F1807F2C
:1054E00010D116E0D5F8A820D9F8001021F46001F9
:1054F0001143C9F80010E6E7B0F1407F13D0B0F1D6
:10550000806F10D001240FE0386840F4003038601C
:1055100009E00198002103F0BDFB03E000980021A1
:1055200003F048FC044674B126462868C043800155
:105530001FD4E86CD8B110280FD0202812D0302802
:1055400015D0012414E0D5F8AC20D9F8001021F0D2
:10555000E0611143C9F80010E7E7386840F4003013
:10556000386004E00198022103F094FB044674B112
:1055700026462888C043C0042BD4286EB0F5005FAF
:1055800020D00DDCA0B1B0F5805F0FD115E06B48E5
:10559000EA6C2030016821F0300111430160E8E736
:1055A000B0F5405F13D0B0F5804F10D001240FE06C
:1055B000386840F40030386009E00198002103F0B9
:1055C00069FB03E00098002103F0F4FB04468CB172
:1055D00026462888C043800429D4686EB0F5403F31
:1055E00023D010DC08B3B0F5803F14D0B0F5003FF5
:1055F0000FD115E02A6ED8F8001021F4E0411143D4
:10560000C8F80010E5E7B0F5802F0ED0B0F5A02F58
:105610000BD001240AE00198012103F03BFB03E0D9
:105620000098012103F0C6FB044694B12646288861
:10563000C04340042AD4D5F8B000B0F1405F23D075
:1056400010DC08B3B0F1805F14D0B0F1005F0FD16F
:1056500015E06A6ED8F8001021F4E0211143C8F873
:105660000010E4E7B0F1804F0ED0B0F1A04F0BD0A6
:1056700001240AE00198012103F00CFB03E00098EB
:10568000012103F097FB044674B126462888C043E5
:1056900000041FD4286FD8B1B0F1805F0ED0B0F1F4
:1056A000005F10D0012414E0D5F8B020D9F8001024
:1056B00021F0E0411143C9F80010E7E7386840F4F1
:1056C0000030386004E00198012103F0E3FA044659
:1056D00074B126462868C043C0011ED4A86CD0B15E
:1056E00001280ED0022811D0032814D0012413E081
:1056F0002A6FD8F8001021F040511143C8F800106B
:10570000E8E7386840F40030386004E0019802218E
:1057100003F0C0FA0446ACB126462868DFF81CB096
:10572000C043ABF11C0B400252D40548016841F460
:1057300080710160FEF7B6FF824611E02C440258EA
:1057400000480258FA48AA6C016821F0030111438D
:105750000160E2E7FEF7A6FFA0EB0A00642835D857
:10576000F4480068C005F5D58CBBDFF8C4A3B5F8D4
:10577000B4100AF1240ADAF8000001F4407100F4D0
:105780004070884211D0DAF80010DAF8002021F4D5
:10579000407142F48032CAF80020DAF8002022F486
:1057A0008032CAF80020CAF80010D5F8B400B0F56D
:1057B000807F1AD1FEF776FF029012E0FEF772FFAB
:1057C0000299411A41F2883081420AD903242646BF
:1057D0002878DFF85CA3C0430AF1080AC00721D08B
:1057E0003CE0DAF800008007E8D5D5F8B410C1F342
:1057F0000120032858460DD0016821F47C51016036
:10580000B5F8B420DAF80010C2F30B021143CAF85D
:105810000010DDE7C84A036802EA111223F47C5144
:105820001143ECE7E86F182816D005DCA0B1082872
:1058300008D0102804D10AE020280DD028280BD049
:1058400001240AE00198012103F024FA03E0009802
:10585000012103F0AFFA044664B126462878C0431C
:1058600080071ED4A86F062819D2DFE800F0160CB6
:1058700011161616EA6FDAF8001021F038011143FC
:10588000CAF80010EAE70198012103F003FA03E0E7
:105890000098012103F08EFA04467CB100E0012457
:1058A00026462878C04340071FD4D5F89400062820
:1058B00019D2DFE800F0160C11161616AA6FDAF8E6
:1058C000001021F007011143CAF80010E9E7019820
:1058D000012103F0DFF903E00098012103F06AFAE7
:1058E0000446A4B100E0012426462878C04380067F
:1058F0002BD4D5F89000B0F1405F24D011DC10B368
:10590000B0F1805F15D0B0F1005F10D116E0D5F88E
:105910009420D9F8001021F007011143C9F80010B4
:10592000E3E7B0F1804F0ED0B0F1A04F0BD00124CF
:105930000AE00198002103F0ADF903E0009802218C
:1059400003F038FA044694B126462878C04340064E
:105950002BD4D5F89C00B0F5406F24D011DC10B3E7
:10596000B0F5806F15D0B0F5006F10D116E0D5F806
:105970009020DAF8001021F0E0411143CAF800103D
:10598000E3E7B0F5805F0ED0B0F5A05F0BD0012447
:105990000AE00198002103F07DF903E0009802215C
:1059A00003F008FA044694B126462878C04300065E
:1059B0002BD4D5F8A000B0F5C04F24D011DC10B323
:1059C000B0F5005F15D0B0F5804F10D116E0D5F8D6
:1059D0009C20D9F8001021F4E0511143C9F80010BF
:1059E000E3E7B0F5004F0ED0B0F5204F0BD0012407
:1059F0000AE00198002103F04DF903E0009802212C
:105A000003F0D8F9044654B126462878C04300076D
:105A10001ED4D5F88400B0F5805F0AD00FE0D5F829
:105A2000A020D9F8001021F460411143C9F80010FA
:105A3000EBE70098022103F0BDF900B10126D5F88B
:105A40008420DAF8001021F440511143CAF8001004
:105A50002878C043C00613D4D5F89800B0F5807FED
:105A600005D10098022103F0A5F900B10126D5F86F
:105A70009820D9F8001021F440711143C9F80010A2
:105A80002868C043000316D4D5F8A40038B1B0F597
:105A9000803F09D0B0F5003F0BD001240AE0019807
:105AA000002103F0F7F803E00098022103F082F9E7
:105AB00004468CB126462868C043400322D4D5F85A
:105AC0008800B0F5801F11D0B0F5001F13D0B0F5DD
:105AD000401F15D0012414E0D5F8A420D9F80010F7
